{
    "abi": [
        {
            "type": "constructor",
            "inputs": [
                {
                    "name": "_relayerNode",
                    "type": "address",
                    "internalType": "address"
                },
                {
                    "name": "_IIfaPriceFeed",
                    "type": "address",
                    "internalType": "address"
                },
                {
                    "name": "_owner",
                    "type": "address",
                    "internalType": "address"
                }
            ],
            "stateMutability": "nonpayable"
        },
        {
            "type": "function",
            "name": "IfaPriceFeed",
            "inputs": [],
            "outputs": [
                {
                    "name": "",
                    "type": "address",
                    "internalType": "contract IIfaPriceFeed"
                }
            ],
            "stateMutability": "view"
        },
        {
            "type": "function",
            "name": "cancelOwnershipHandover",
            "inputs": [],
            "outputs": [],
            "stateMutability": "payable"
        },
        {
            "type": "function",
            "name": "completeOwnershipHandover",
            "inputs": [
                {
                    "name": "pendingOwner",
                    "type": "address",
                    "internalType": "address"
                }
            ],
            "outputs": [],
            "stateMutability": "payable"
        },
        {
            "type": "function",
            "name": "owner",
            "inputs": [],
            "outputs": [
                {
                    "name": "result",
                    "type": "address",
                    "internalType": "address"
                }
            ],
            "stateMutability": "view"
        },
        {
            "type": "function",
            "name": "ownershipHandoverExpiresAt",
            "inputs": [
                {
                    "name": "pendingOwner",
                    "type": "address",
                    "internalType": "address"
                }
            ],
            "outputs": [
                {
                    "name": "result",
                    "type": "uint256",
                    "internalType": "uint256"
                }
            ],
            "stateMutability": "view"
        },
        {
            "type": "function",
            "name": "relayerNode",
            "inputs": [],
            "outputs": [
                {
                    "name": "",
                    "type": "address",
                    "internalType": "address"
                }
            ],
            "stateMutability": "view"
        },
        {
            "type": "function",
            "name": "renounceOwnership",
            "inputs": [],
            "outputs": [],
            "stateMutability": "payable"
        },
        {
            "type": "function",
            "name": "requestOwnershipHandover",
            "inputs": [],
            "outputs": [],
            "stateMutability": "payable"
        },
        {
            "type": "function",
            "name": "setRelayerNode",
            "inputs": [
                {
                    "name": "_relayerNode",
                    "type": "address",
                    "internalType": "address"
                }
            ],
            "outputs": [],
            "stateMutability": "nonpayable"
        },
        {
            "type": "function",
            "name": "submitPriceFeed",
            "inputs": [
                {
                    "name": "_assetindex",
                    "type": "uint64[]",
                    "internalType": "uint64[]"
                },
                {
                    "name": "_prices",
                    "type": "tuple[]",
                    "internalType": "struct IIfaPriceFeed.PriceFeed[]",
                    "components": [
                        {
                            "name": "decimal",
                            "type": "uint8",
                            "internalType": "uint8"
                        },
                        {
                            "name": "lastUpdateTime",
                            "type": "uint256",
                            "internalType": "uint256"
                        },
                        {
                            "name": "price",
                            "type": "uint256",
                            "internalType": "uint256"
                        },
                        {
                            "name": "roundId",
                            "type": "uint256",
                            "internalType": "uint256"
                        }
                    ]
                }
            ],
            "outputs": [],
            "stateMutability": "nonpayable"
        },
        {
            "type": "function",
            "name": "transferOwnership",
            "inputs": [
                {
                    "name": "newOwner",
                    "type": "address",
                    "internalType": "address"
                }
            ],
            "outputs": [],
            "stateMutability": "payable"
        },
        {
            "type": "event",
            "name": "OwnershipHandoverCanceled",
            "inputs": [
                {
                    "name": "pendingOwner",
                    "type": "address",
                    "indexed": true,
                    "internalType": "address"
                }
            ],
            "anonymous": false
        },
        {
            "type": "event",
            "name": "OwnershipHandoverRequested",
            "inputs": [
                {
                    "name": "pendingOwner",
                    "type": "address",
                    "indexed": true,
                    "internalType": "address"
                }
            ],
            "anonymous": false
        },
        {
            "type": "event",
            "name": "OwnershipTransferred",
            "inputs": [
                {
                    "name": "oldOwner",
                    "type": "address",
                    "indexed": true,
                    "internalType": "address"
                },
                {
                    "name": "newOwner",
                    "type": "address",
                    "indexed": true,
                    "internalType": "address"
                }
            ],
            "anonymous": false
        },
        {
            "type": "error",
            "name": "AlreadyInitialized",
            "inputs": []
        },
        {
            "type": "error",
            "name": "InvalidAssetIndexorPriceLength",
            "inputs": []
        },
        {
            "type": "error",
            "name": "InvalidRelayerNode",
            "inputs": [
                {
                    "name": "_address",
                    "type": "address",
                    "internalType": "address"
                }
            ]
        },
        {
            "type": "error",
            "name": "NewOwnerIsZeroAddress",
            "inputs": []
        },
        {
            "type": "error",
            "name": "NoHandoverRequest",
            "inputs": []
        },
        {
            "type": "error",
            "name": "OnlyRelayerNode",
            "inputs": [
                {
                    "name": "_caller",
                    "type": "address",
                    "internalType": "address"
                }
            ]
        },
        {
            "type": "error",
            "name": "Unauthorized",
            "inputs": []
        }
    ],
    "bytecode": {
        "object": "0x60a060405234801561000f575f5ffd5b50604051610b15380380610b1583398101604081905261002e916100cf565b6100378161005c565b505f80546001600160a01b0319166001600160a01b039384161790551660805261010f565b638b78c6d81980541561007657630dc149f05f526004601cfd5b6001600160a01b03909116801560ff1b8117909155805f7f8be0079c531659141344cd1fd0a4f28419497f9722a3daafe3b4186f6b6457e08180a350565b80516001600160a01b03811681146100ca575f5ffd5b919050565b5f5f5f606084860312156100e1575f5ffd5b6100ea846100b4565b92506100f8602085016100b4565b9150610106604085016100b4565b90509250925092565b6080516109e06101355f395f818161018e015281816104d5015261059401526109e05ff3fe6080604052600436106100b8575f3560e01c80638da5cb5b11610071578063f04e283e1161004c578063f04e283e146101cf578063f2fde38b146101e2578063fee81cf4146101f5575f5ffd5b80638da5cb5b1461014a578063df38f08f1461017d578063eb335ec1146101b0575f5ffd5b80632ba2c4cb116100a15780632ba2c4cb1461011b57806354d1f13d1461013a578063715018a614610142575f5ffd5b806318338690146100bc5780632569296214610111575b5f5ffd5b3480156100c7575f5ffd5b505f546100e79073ffffffffffffffffffffffffffffffffffffffff1681565b60405173ffffffffffffffffffffffffffffffffffffffff90911681526020015b60405180910390f35b610119610234565b005b348015610126575f5ffd5b50610119610135366004610712565b610281565b61011961033c565b610119610375565b348015610155575f5ffd5b507fffffffffffffffffffffffffffffffffffffffffffffffffffffffff74873927546100e7565b348015610188575f5ffd5b506100e77f000000000000000000000000000000000000000000000000000000000000000081565b3480156101bb575f5ffd5b506101196101ca366004610794565b610388565b6101196101dd366004610712565b61060c565b6101196101f0366004610712565b610649565b348015610200575f5ffd5b5061022661020f366004610712565b63389a75e1600c9081525f91909152602090205490565b604051908152602001610108565b5f6202a30067ffffffffffffffff164201905063389a75e1600c52335f52806020600c2055337fdbf36a107da19e49527a7176a1babf963b4b0ff8cde35ee35d6cd8f1f9ac7e1d5f5fa250565b61028961066f565b8073ffffffffffffffffffffffffffffffffffffffff81166102f5576040517fae01cd5b00000000000000000000000000000000000000000000000000000000815273ffffffffffffffffffffffffffffffffffffffff90911660048201526024015b60405180910390fd5b505f80547fffffffffffffffffffffffff00000000000000000000000000000000000000001673ffffffffffffffffffffffffffffffffffffffff92909216919091179055565b63389a75e1600c52335f525f6020600c2055337ffa7b8eab7da67f412cc9575ed43464468f9bfbae89d1675917346ca6d8fe3c925f5fa2565b61037d61066f565b6103865f6106a4565b565b5f54339073ffffffffffffffffffffffffffffffffffffffff1681146103f3576040517fe7a71aa100000000000000000000000000000000000000000000000000000000815273ffffffffffffffffffffffffffffffffffffffff90911660048201526024016102ec565b5082811461042d576040517f535e9d1100000000000000000000000000000000000000000000000000000000815260040160405180910390fd5b5f5b83811015610605575f85858381811061044a5761044a61082f565b905060200201602081019061045f919061085c565b9050368484848181106104745761047461082f565b6040517f4ec3ce7f00000000000000000000000000000000000000000000000000000000815267ffffffffffffffff861660048201526080909102929092019250506020820135905f9073ffffffffffffffffffffffffffffffffffffffff7f00000000000000000000000000000000000000000000000000000000000000001690634ec3ce7f9060240160a0604051808303815f875af115801561051b573d5f5f3e3d5ffd5b505050506040513d601f19601f8201168201806040525081019061053f91906108b0565b509050818160200151111561055757505050506105fd565b6040517f41a7a35d00000000000000000000000000000000000000000000000000000000815273ffffffffffffffffffffffffffffffffffffffff7f000000000000000000000000000000000000000000000000000000000000000016906341a7a35d906105cb908790879060040161095b565b5f604051808303815f87803b1580156105e2575f5ffd5b505af11580156105f4573d5f5f3e3d5ffd5b50505050505050505b60010161042f565b5050505050565b61061461066f565b63389a75e1600c52805f526020600c20805442111561063a57636f5e88185f526004601cfd5b5f9055610646816106a4565b50565b61065161066f565b8060601b61066657637448fbae5f526004601cfd5b610646816106a4565b7fffffffffffffffffffffffffffffffffffffffffffffffffffffffff74873927543314610386576382b429005f526004601cfd5b7fffffffffffffffffffffffffffffffffffffffffffffffffffffffff74873927805473ffffffffffffffffffffffffffffffffffffffff9092169182907f8be0079c531659141344cd1fd0a4f28419497f9722a3daafe3b4186f6b6457e05f80a3811560ff1b8217905550565b5f60208284031215610722575f5ffd5b813573ffffffffffffffffffffffffffffffffffffffff81168114610745575f5ffd5b9392505050565b5f5f83601f84011261075c575f5ffd5b50813567ffffffffffffffff811115610773575f5ffd5b6020830191508360208260071b850101111561078d575f5ffd5b9250929050565b5f5f5f5f604085870312156107a7575f5ffd5b843567ffffffffffffffff8111156107bd575f5ffd5b8501601f810187136107cd575f5ffd5b803567ffffffffffffffff8111156107e3575f5ffd5b8760208260051b84010111156107f7575f5ffd5b60209182019550935085013567ffffffffffffffff811115610817575f5ffd5b6108238782880161074c565b95989497509550505050565b7f4e487b71000000000000000000000000000000000000000000000000000000005f52603260045260245ffd5b5f6020828403121561086c575f5ffd5b813567ffffffffffffffff81168114610745575f5ffd5b60ff81168114610646575f5ffd5b805161089c81610883565b919050565b8051801515811461089c575f5ffd5b5f5f82840360a08112156108c2575f5ffd5b60808112156108cf575f5ffd5b506040516080810181811067ffffffffffffffff82111715610918577f4e487b71000000000000000000000000000000000000000000000000000000005f52604160045260245ffd5b60405261092484610891565b81526020848101519082015260408085015190820152606080850151908201529150610952608084016108a1565b90509250929050565b67ffffffffffffffff8316815260a08101823561097781610883565b60ff166020838101919091528301356040808401919091528301356060808401919091529092013560809091015291905056fea2646970667358221220750ee93423c2ef9854cbb70c489176ab8c8b2298c6c64403ca5a4873cb53337164736f6c634300081d0033",
        "linkReferences": {}
    },
    "methodIdentifiers": {
        "IfaPriceFeed()": "df38f08f",
        "cancelOwnershipHandover()": "54d1f13d",
        "completeOwnershipHandover(address)": "f04e283e",
        "owner()": "8da5cb5b",
        "ownershipHandoverExpiresAt(address)": "fee81cf4",
        "relayerNode()": "18338690",
        "renounceOwnership()": "715018a6",
        "requestOwnershipHandover()": "25692962",
        "setRelayerNode(address)": "2ba2c4cb",
        "submitPriceFeed(uint64[],(uint8,uint256,uint256,uint256)[])": "eb335ec1",
        "transferOwnership(address)": "f2fde38b"
    },
    "id": 21
}